:060000000A128A1100291A
:10000800F000030EF1000B180E20710E8300F00EA5
:10001800700E090003138312061C850A861C8503CB
:040028000B100800B1
:1002000005211C2123212721042903178316880196
:1002100089010313831685010313831606148614BC
:1002200003138316811303138316151495140313F4
:100230008312850186010800031383160F140F171C
:100240008F120F1208008B178B150B100800031369
:100250008316161496140313831206080B10080055
:04400E00C430FF3F7C
:00000001FF
