:060000000A128A11142906
:10000800F000030EF1000B191E200B181020710EC2
:100018008300F00E700E090003138312061C1820CB
:10002800861C1B200B100800850AA00A08008503FF
:10003800A003080003138312FB3081000B11890110
:1000480021182B2824088800891421140800250861
:080058008800091421100800C2
:100200008A010A140F3982073F3406345B344F34B5
:1002100066346D347D3407347F346F3477347C3406
:1002200039345E34793471341E2138213F214C2118
:100230005221031383125B2163211B2903178316A9
:10024000880189010313831685010313831606149D
:100250008614880109108910031383168113031370
:100260008316151495140313831285018601080063
:10027000031383160F140F178F120F1208000313A6
:100280008316811281110115811401140313831245
:10029000FB3081000B1108008B178B150B108B1690
:1002A0000B110800031383161614961403138312FC
:1002B00006080B1008000F302005A200F0302005C2
:1002C000A300A30E080022080021A4002308002197
:0402D000A50008007D
:04400E00C430FF3F7C
:00000001FF
